{
  "contractName": "ExpenseTracker",
  "abi": [
    {
      "inputs": [],
      "stateMutability": "nonpayable",
      "type": "constructor"
    },
    {
      "inputs": [],
      "name": "balance",
      "outputs": [
        {
          "internalType": "int256",
          "name": "",
          "type": "int256"
        }
      ],
      "stateMutability": "view",
      "type": "function",
      "constant": true
    },
    {
      "inputs": [],
      "name": "name",
      "outputs": [
        {
          "internalType": "string",
          "name": "",
          "type": "string"
        }
      ],
      "stateMutability": "view",
      "type": "function",
      "constant": true
    },
    {
      "inputs": [
        {
          "internalType": "uint256",
          "name": "",
          "type": "uint256"
        }
      ],
      "name": "transactions",
      "outputs": [
        {
          "internalType": "address",
          "name": "txOwner",
          "type": "address"
        },
        {
          "internalType": "string",
          "name": "txDescription",
          "type": "string"
        },
        {
          "internalType": "int64",
          "name": "amount",
          "type": "int64"
        }
      ],
      "stateMutability": "view",
      "type": "function",
      "constant": true
    },
    {
      "inputs": [],
      "name": "transactionCount",
      "outputs": [
        {
          "internalType": "uint256",
          "name": "",
          "type": "uint256"
        }
      ],
      "stateMutability": "view",
      "type": "function",
      "constant": true
    },
    {
      "inputs": [
        {
          "internalType": "string",
          "name": "_description",
          "type": "string"
        },
        {
          "internalType": "int64",
          "name": "_amount",
          "type": "int64"
        }
      ],
      "name": "addTransaction",
      "outputs": [
        {
          "internalType": "bool",
          "name": "",
          "type": "bool"
        }
      ],
      "stateMutability": "nonpayable",
      "type": "function"
    }
  ],
  "bytecode": "0x6080604052600060015534801561001557600080fd5b506040518060400160405280601781526020017f45544820457870656e736520547261636b6572204170700000000000000000008152506000908051906020019061006192919061022a565b506100a86040518060400160405280601881526020017f546869732069732073616d706c6520313a20696e636f6d650000000000000000815250606461011460201b60201c565b5061010e6040518060400160405280601981526020017f546869732069732073616d706c6520323a20657870656e7365000000000000008152507fffffffffffffffffffffffffffffffffffffffffffffffffffffffffffffffce61011460201b60201c565b506102c7565b6000600260405180606001604052803373ffffffffffffffffffffffffffffffffffffffff1681526020018581526020018460070b815250908060018154018082558091505060019003906000526020600020906003020160009091909190915060008201518160000160006101000a81548173ffffffffffffffffffffffffffffffffffffffff021916908373ffffffffffffffffffffffffffffffffffffffff16021790555060208201518160010190805190602001906101d892919061022a565b5060408201518160020160006101000a81548167ffffffffffffffff021916908360070b67ffffffffffffffff16021790555050508160070b6001600082825401925050819055506001905092915050565b828054600181600116156101000203166002900490600052602060002090601f016020900481019282601f1061026b57805160ff1916838001178555610299565b82800160010185558215610299579182015b8281111561029857825182559160200191906001019061027d565b5b5090506102a691906102aa565b5090565b5b808211156102c35760008160009055506001016102ab565b5090565b61065d806102d66000396000f3fe608060405234801561001057600080fd5b50600436106100575760003560e01c806306fdde031461005c57806372d06472146100df5780639ace38c2146101bd578063b69ef8a81461028b578063b77bf600146102a9575b600080fd5b6100646102c7565b6040518080602001828103825283818151815260200191508051906020019080838360005b838110156100a4578082015181840152602081019050610089565b50505050905090810190601f1680156100d15780820380516001836020036101000a031916815260200191505b509250505060405180910390f35b6101a5600480360360408110156100f557600080fd5b810190808035906020019064010000000081111561011257600080fd5b82018360208201111561012457600080fd5b8035906020019184600183028401116401000000008311171561014657600080fd5b91908080601f016020809104026020016040519081016040528093929190818152602001838380828437600081840152601f19601f820116905080830192505050505050509192919290803560070b9060200190929190505050610365565b60405180821515815260200191505060405180910390f35b6101e9600480360360208110156101d357600080fd5b810190808035906020019092919050505061047b565b604051808473ffffffffffffffffffffffffffffffffffffffff168152602001806020018360070b8152602001828103825284818151815260200191508051906020019080838360005b8381101561024e578082015181840152602081019050610233565b50505050905090810190601f16801561027b5780820380516001836020036101000a031916815260200191505b5094505050505060405180910390f35b610293610577565b6040518082815260200191505060405180910390f35b6102b161057d565b6040518082815260200191505060405180910390f35b60008054600181600116156101000203166002900480601f01602080910402602001604051908101604052809291908181526020018280546001816001161561010002031660029004801561035d5780601f106103325761010080835404028352916020019161035d565b820191906000526020600020905b81548152906001019060200180831161034057829003601f168201915b505050505081565b6000600260405180606001604052803373ffffffffffffffffffffffffffffffffffffffff1681526020018581526020018460070b815250908060018154018082558091505060019003906000526020600020906003020160009091909190915060008201518160000160006101000a81548173ffffffffffffffffffffffffffffffffffffffff021916908373ffffffffffffffffffffffffffffffffffffffff160217905550602082015181600101908051906020019061042992919061058a565b5060408201518160020160006101000a81548167ffffffffffffffff021916908360070b67ffffffffffffffff16021790555050508160070b6001600082825401925050819055506001905092915050565b6002818154811061048857fe5b90600052602060002090600302016000915090508060000160009054906101000a900473ffffffffffffffffffffffffffffffffffffffff1690806001018054600181600116156101000203166002900480601f01602080910402602001604051908101604052809291908181526020018280546001816001161561010002031660029004801561055a5780601f1061052f5761010080835404028352916020019161055a565b820191906000526020600020905b81548152906001019060200180831161053d57829003601f168201915b5050505050908060020160009054906101000a900460070b905083565b60015481565b6000600280549050905090565b828054600181600116156101000203166002900490600052602060002090601f016020900481019282601f106105cb57805160ff19168380011785556105f9565b828001600101855582156105f9579182015b828111156105f85782518255916020019190600101906105dd565b5b509050610606919061060a565b5090565b5b8082111561062357600081600090555060010161060b565b509056fea2646970667358221220bc8b89191d8eec8854c0e00699726257b314d7dacea5f6fa817ab44d7f6de29964736f6c634300060c0033",
  "immutableReferences": {},
  "source": "// SPDX-License-Identifier: UNLICENSED\r\n\r\npragma solidity ^0.6.12;\r\n\r\ncontract ExpenseTracker {\r\n\tstring public name;\r\n    int256 public balance = 0;\r\n    \r\n    struct Transaction {\r\n        address txOwner;\r\n        string txDescription;\r\n        int64 amount;\r\n    }\r\n    \r\n    Transaction[] public transactions;\r\n\r\n\tconstructor() public {\r\n\t\tname = 'ETH Expense Tracker App';\r\n\r\n\t\t// Sample Transactions\r\n\t\taddTransaction('This is sample 1: income', 100);\r\n\t\taddTransaction('This is sample 2: expense', -50);\r\n\t}\r\n    \r\n\t// Read function\r\n    function transactionCount() \r\n        public \r\n        view \r\n        returns (uint256) \r\n    {\r\n        return transactions.length;\r\n    }\r\n    \r\n\t// Write function\r\n    function addTransaction(string memory _description, int64 _amount) \r\n        public\r\n        returns (bool)\r\n    {\r\n        transactions.push(\r\n            Transaction({\r\n                txOwner: msg.sender,\r\n                txDescription: _description,\r\n                amount: _amount\r\n            })\r\n        );\r\n        balance += _amount;\r\n        \r\n        return true;\r\n    }\r\n}",
  "sourcePath": "E:/Programming/Programming_Projects/blockchain/full-stack/ethereum/eth-expense-tracker/contracts/ExpenseTracker.sol",
  "compiler": {
    "name": "solc",
    "version": "0.6.12+commit.27d51765.Emscripten.clang"
  },
  "schemaVersion": "3.3.2",
  "updatedAt": "2020-12-02T04:31:19.718Z",
  "networkType": "ethereum",
  "devdoc": {
    "kind": "dev",
    "methods": {},
    "version": 1
  },
  "userdoc": {
    "kind": "user",
    "methods": {},
    "version": 1
  }
}